:020000040800F2
:1000000008050020490100083D210008BB1F000829
:1000100039210008250C00087125000800000000A7
:100020000000000000000000000000008D22000819
:10003000290C000800000000412100088F22000860
:100040006301000863010008630100086301000800
:1000500063010008630100086301000863010008F0
:1000600063010008630100086301000863010008E0
:1000700063010008630100086301000863010008D0
:1000800063010008630100086301000863010008C0
:1000900063010008630100086301000863010008B0
:1000A00063010008630100086301000863010008A0
:1000B0006301000863010008630100086301000890
:1000C0006301000863010008630100086301000880
:1000D0006301000863010008630100086301000870
:1000E0006301000863010008630100086301000860
:1000F0006301000863010008630100086301000850
:10010000630100086301000863010008630100083F
:10011000630100086301000863010008630100082F
:10012000630100086301000863010008630100081F
:10013000DFF810D000F0FCFB00480047452F000816
:10014000AFF30080080500200648804706480047B6
:10015000FEE7FEE7FEE7FEE7FEE7FEE7FEE7FEE777
:10016000FEE7FEE7F3220008310100082DE9F05F09
:100170000546002092469B46884606468146402416
:100180001BE0284641464746224600F020F85346E9
:100190005A46C01A914110D311461846224600F023
:1001A000DDF92D1A67EB01084F4622460120002198
:1001B00000F0D4F917EB00094E41201EA4F1010410
:1001C000DFDC484631462A464346BDE8F09F202AF8
:1001D00004DB203A21FA02F00021704721FA02F3F1
:1001E000D040C2F120029140084319467047D2B274
:1001F00001E000F8012B491EFBD270470022F6E710
:1002000010B513460A4604461946FFF7F0FF20468C
:1002100010BDF0B480EA0102D40F4200B2EB410FEE
:1002200002D20246084611464A0042D0C30DDDB252
:10023000C1F3C752AD1A202D35DAC1F3160141F4CE
:10024000000204B15242C5F1200602FA06F12A4129
:100250001044B3EBD05F23D0C4B1012DA0EBC35049
:1002600009DCF0BC4FF0004202EAC352DBB200F5F9
:10027000000000F08BB9400000F1807000EBC3502B
:10028000A0F1807040EAD170490009E0490841EAD4
:10029000C071A0EBC35000F50000400800EBC35054
:1002A000F0BC00F06AB96142012202EB4101001B7F
:1002B000F6E7F0BC704781F00041AAE780F000400B
:1002C000A7E780EA010210B502F00043400022D007
:1002D0004A001FD0010E01EB1261C0F35600C2F3B9
:1002E000560240F4000042F40002A0FB0220000489
:1002F0007F39140400D0401C50EA124001D4400061
:10030000491EC2B20C0604EBD010401C4008802AE3
:1003100002D003E0002010BD20F00100002900DA27
:100320000020184310BD30B480EA010202F00045FD
:1003300030F0004221F0004013D090B1C30DD40D35
:10034000C2F31601C0F31600E41A41F4000140F4B0
:1003500000027D34914201D3641C00E04900002C6E
:1003600002DA30BC002070474FF4000000239142B5
:1003700001D3891A034340084FEA4101F7D151B133
:10038000914202D14FF0004105E002D24FF001014D
:1003900001E06FF0010103EBC450284430BC00F0D1
:1003A000ECB82DE9FE4F81EA030404F0004421F08B
:1003B000004100944FF0000B23F0004350EA010489
:1003C0005ED052EA03045BD0C3F30A54C1F30A556A
:1003D0002C44A4F2F3340194A0FB0254C1F31301A2
:1003E00041F48011C3F3130343F4801301FB02446F
:1003F00000FB034E840A970A44EA815447EA835774
:10040000A4FB076802958D0A05FB07854FEA932C2C
:1004100004FB0C542705029D4FEA065847EA16379D
:10042000B5EB08056EEB070C870E920E47EA8117B5
:1004300042EA8312A7FB0201B6EB0B0164EB000456
:100440002B0D43EA0C335E1844EB1C50DA46514640
:10045000E7FB0201C5F313044FEA0B3343EA1453DD
:100460004FEA0432019C43EA0603A4F10C0402940F
:10047000009CCDE900B400F0C6F803B0BDE8F08FF1
:1004800000200146F9E796230022114600F07EB8CD
:100490000EB540F2334102910021CDE900110A4628
:1004A0000B4600F0B0F803B000BD00F0004230F0A1
:1004B00000400AD0C10D01F56071C0F3160042EA98
:1004C0000151C208400711437047002001467047A0
:1004D00001F0004330B421F0004150EA010206D09F
:1004E0000A0DA2F56072C1F31301002A02DC30BCD0
:1004F00000207047440F44EAC104C100E01830BC3A
:1005000000EBC25000F039B8002801DBC0F1004018
:10051000002901DBC1F1004181427047002801DB65
:10052000C0F10040002901DBC1F100418842704761
:1005300030B50B46014600202022012409E021FAB3
:1005400002F59D4205D303FA02F5491B04FA02F5B0
:100550002844151EA2F10102F1DC30BD202A04DB83
:10056000203A00FA02F1002070479140C2F12003C6
:1005700020FA03F31943904070470029A8BF704741
:10058000401C490008BF20F00100704710B4B0FAC9
:1005900080FC00FA0CF050EA010404BF10BC704764
:1005A00049B1CCF1200421FA04F411FA0CF118BF7E
:1005B000012121430843A3EB0C01CB1D4FEA00614D
:1005C0004FEA102042BF002010BC704700EBC35020
:1005D00010440029A4BF10BC7047401C490008BF4C
:1005E00020F0010010BC704710B5141E73F1000418
:1005F00008DA401C41F1000192185B411A4301D115
:1006000020F0010010BD2DE9F04D92469B4611B13E
:10061000B1FA81F202E0B0FA80F220329046FFF7A0
:100620009DFF04460F4640EA0A0041EA0B0153468B
:100630005A46084313D0114653EA010019D0C8F1B5
:1006400040025046FFF7C3FD05460E465046594648
:100650004246FFF783FF084305D0012004E020460F
:100660003946BDE8F08D0020054346EAE0762C438C
:1006700037430A986305E40AA0EB08000022FD0A4C
:1006800044EA47540A3002D500200146E9E7010553
:1006900010196941DDE9084500196941BDE8F04DCF
:1006A000A2E72DE9FE4F804681EA0300C00F0C4609
:1006B000009021F0004123F00045B8EB0200A94171
:1006C00005D24046214690461C460B46024623F082
:1006D0000040104347D0270DC7F30A00C3F30A5167
:1006E0000290401A019040286BDAC3F3130040F4E3
:1006F000801B0098924620B10023D2EB030A63EBE3
:100700000B0B01985946C0F140025046FFF726FFF7
:1007100006460D4650465946019A00F01BF910EB6B
:1007200008006141002487EA115284EAE7731A4302
:1007300040D0009A62B3019A012A4FEA075215DCB1
:10074000001B61EB02014FF0004202EA0752CDE9C3
:100750000042001C41F5801132462B46FFF753FF43
:1007600003B0BDE8F08F40462146F9E7001B61EB7E
:100770000201001C41F5801300185B412018A2F50E
:10078000001747EB030140EAD570B6196D4111E03F
:100790006D084FEA360645EAC0754FEA0752001B5E
:1007A00061EB0201001C41F5801149084FEA30005D
:1007B0000019514132462B4603B0BDE8F04FFFF718
:1007C00013BF0098012240000023D0EB020263EB2C
:1007D000E073009821464FEAE074B8EB000061EB4B
:1007E0000401E9E783F000435BE781F0004158E74B
:1007F0002DE9F04D81EA030404F0004B21F000459F
:1008000014464FF0000A23F0004150EA050220D0C0
:1008100054EA01021DD0C5F30A570246C5F313037B
:10082000C1F31300C1F30A5640F4801543F480135A
:10083000A7EB0608101BD64608F2FD3873EB05003F
:1008400002D308F1010801E092185B41B8F1000FF2
:1008500003DA00200146BDE8F08D00204FF480113E
:10086000064684460EE0171B73EB050705D3121BE3
:1008700063EB050306434CEA010C49084FEA3000DC
:1008800092185B4150EA0107EDD152EA030012D001
:1008900082EA040083EA0501084305D0101BAB413E
:1008A00006D20122002306E000224FF0004302E0BE
:1008B0006FF0010253101AEB06004CEB085110EBDD
:1008C0000A0041EB0B01BDE8F04DFFF78DBEC1F30F
:1008D0000A52C1F3130140F2FF3341F480119A42EE
:1008E00002DA00200146704740F233439A42A2F2F6
:1008F000334202DC5242FFF76ABCFFF72FBE000012
:1009000030B5041E71F1000404DB4FF00044404296
:1009100064EB0101141E73F1000405DB1C464FF06B
:100920000043524263EB0403994208BF904230BD3A
:10093000064C074D06E0E06840F0010394E807002C
:1009400098471034AC42F6D3FFF7F6FB0C3400089E
:100950002C340008202A06DBCB17203A41FA02F09B
:1009600043EAE07306E041FA02F3D040C2F120020C
:1009700091400843194670472DE9F04700F08EF882
:100980004FF0000980460D494FF0000C4246A2FB93
:10099000016A09FB01A108FB0C114FF0806263465C
:1009A0003046FFF7E3FB04460D4622462B4604A0E3
:1009B00001F0E0FD20462946BDE8F087E0D14D007A
:1009C000526573697374616E6365203D20256C6C9C
:1009D00064200D0A0000000010B5402001F0DAFB91
:1009E000FF2001F0D7FB044604F0800020B10BA0EB
:1009F00001F0C0FD802010BD04F0400020B10FA028
:100A000001F0B8FD4020F6E704F0200020B116A068
:100A100001F0B0FD2020EEE70020ECE7414437373D
:100A200039345F4765745374617475733A204E6F3F
:100A3000207265616479200D0A0000004144373757
:100A400039345F4765745374617475733A20416E2D
:100A5000206572726F7220686173206F63637572B4
:100A6000726564200D0A00004144373739345F470E
:100A700065745374617475733A204E6F2065787491
:100A800065726E616C207265666572656E63652065
:100A9000766F6C74616765200D0A00002DE9F041E6
:100AA00000224FF40061214800F076FA052002F0A0
:100AB0000FFAFFF791FF804605E0F02000F0B8F84C
:100AC000FFF78AFF8046B8F1000FF6D1582001F0F9
:100AD00061FBFF2001F05EFB0446FF2001F05AFBA2
:100AE0000546FF2001F056FB0746052002F0F0F90D
:100AF0000122D1020D4800F04FFA21460CA001F06E
:100B000039FD29460EA001F035FD394610A001F04F
:100B100031FD200440EA052040EA0706314610A0D6
:100B200001F028FD3046BDE8F081000000140140CE
:100B30004D5342203D20252378200D0A000000005F
:100B40004D494E5342203D20252378200D0A0000B8
:100B50004C5342203D20252378200D0A0000000040
:100B6000766F6C7461676520436F6465203D202556
:100B70002378200D0A00000010B500224FF4006118
:100B8000274800F009FA052002F0A2F9FF2001F041
:100B900001FBFF2001F0FEFAFF2001F0FBFA052027
:100BA00002F096F90122D1021D4800F0F5F90A2061
:100BB00000F03EF800224FF40061194800F0ECF913
:100BC000052002F085F9082001F0E4FA002001F088
:100BD000E1FA0A2001F0DEFA012000F029F81020E5
:100BE00001F0D8FA122001F0D5FA322001F0D2FA41
:100BF000012000F01DF8282001F0CCFA0E2001F0B1
:100C0000C9FA012000F014F8052002F061F9012270
:100C1000D102034800F0C0F9F12000F009F810BD3E
:100C20000014014000BFFEE7704772B600BFFEE748
:100C300070B5044600F0B6F906462546681C10B1AA
:100C400004480078054400BF00F0ACF9801BA842BE
:100C5000FAD370BD140000202DE9F84702460023A6
:100C60009C467BE14FF0010808FA03F4D1F80080BC
:100C700008EA0400A0427DD1DFF8F4A2D1F8048094
:100C8000A8EB0A09D0453AD014DCB8F1030F50D0D4
:100C900009DCB8F1000F31D0B8F1010F1CD0B8F168
:100CA000020F49D120E0B8F1110F18D0B8F1120F9E
:100CB00042D11EE0B9F5881F25D006DCB9F5803F8A
:100CC00020D0B9F5801F37D11AE0B9F5001F18D030
:100CD000B9F5041F30D117E0D1F80CC02DE0D1F8E0
:100CE0000C8008F1040C28E0D1F80C8008F1080C05
:100CF00023E0D1F80C8008F10C0C1EE000BF00BF0F
:100D000000BF00BF00BF00BFD1F80880B8F1000FDE
:100D100002D14FF0040C0BE0D1F80880B8F1010FBC
:100D200003D14FF0080C146102E04FF0080C54613D
:100D300003E04FF0000C00E000BF00BFFF2801D827
:100D4000904601E002F104084646FF2802D84FEA27
:100D5000830803E0A3F108084FEA88084746D6F85D
:100D600000804FF00F0909FA07F928EA09080CFA80
:100D700007F900E07AE048EA0908C6F80080D1F8EF
:100D8000048008F08058B8F1805F6FD100BFDFF8B1
:100D9000E481D8F8188048F00108DFF8D891C9F844
:100DA0001880C846D8F8188008F00108CDF80080EF
:100DB00000BF00BF4FEAB9384FEA930958F82950ED
:100DC0004FEA83784FEA18794FF00F0808FA09F8CC
:100DD00025EA0805DFF8A081424502D14FF000085E
:100DE00024E0DFF89881424502D14FF001081DE070
:100DF000DFF88C81424502D14FF0020816E0DFF89F
:100E00008481424502D14FF003080FE0DFF878817A
:100E1000424502D14FF0040808E0DFF870814245F6
:100E200002D14FF0050801E04FF006084FEA837940
:100E30004FEA197908FA09F848EA0505DFF8508100
:100E40004FEA930948F82950D1F8048008F4803813
:100E5000B8F5803F0BD1DFF83C81D8F8008048EA34
:100E60000008DFF83091C9F800800AE075E0DFF88B
:100E70002481D8F8008028EA0008DFF81891C9F822
:100E80000080D1F8048008F40038B8F5003F0ED196
:100E9000DFF8008108F10408D8F8008048EA00086B
:100EA000DFF8F09009F10409C9F800800DE0DFF8DF
:100EB000E48008F10408D8F8008028EA0008DFF888
:100EC000D49009F10409C9F80080D1F8048008F42D
:100ED0008018B8F5801F0ED1DFF8B88008F1080837
:100EE000D8F8008048EA0008DFF8A89009F108095E
:100EF000C9F800800DE0DFF89C8008F10808D8F8F8
:100F0000008028EA0008DFF88C9009F10809C9F888
:100F10000080D1F8048008F40018B8F5001F0ED145
:100F2000DFF8708008F10C08D8F8008048EA000863
:100F3000DFF8609009F10C09C9F800800DE0DFF8D6
:100F4000548008F10C08D8F8008028EA0008DFF87F
:100F5000449009F10C09C9F800805B1CD1F80080AD
:100F600028FA03F8B8F1000F7FF47CAEBDE8F887EB
:100F7000000011100010024000080140000C014068
:100F8000001001400014014000180140001C014005
:100F900008000140000401400AB1016101E00B04B6
:100FA0000361704701480068704700000C00002092
:100FB00003480068034909780844014908607047FC
:100FC0000C0000201400002010B50848006840F014
:100FD000100006490860032000F098F80F2000F088
:100FE00007F800F02BF8002010BD000000200240A0
:100FF00070B504460E4800784FF47A71B1FBF0F0FA
:101000000C490968B1FBF0F5284600F0B6FD08B1BF
:10101000012070BD102C07D200222146501E00F086
:1010200037F80548046001E00120F2E70020F0E70E
:1010300014000020180000201000002008B500BF98
:101040001148806940F001000F49886108468069B5
:1010500000F00100009000BF00BF00BF0846C0695B
:1010600040F08050C8610846C06900F08050009090
:1010700000BF00BF00BF0549486820F0E06040F0B5
:101080000070486000BF08BD001002400000014031
:101090002DE9F05F80460D461646002701F07AFAEA
:1010A000074639462A46334601F00700C0F1070AD1
:1010B000BAF1040F02D94FF0040A01E0C0F1070AA7
:1010C000D14600F1040ABAF1070F02D24FF0000A2C
:1010D00001E0A0F1030AD4464FF0010A0AFA09FA26
:1010E000AAF1010A0AEA020A0AFA0CFA4FF0010B05
:1010F0000BFA0CFBABF1010B0BEA030B4AEA0B04F6
:101100002146404601F04EFABDE8F09F00BF00F0D6
:101110000702064B19684FF6FF031940044B0B43B7
:1011200043EA0221014B196000BF70470CED00E05B
:101130000000FA0570B504460D460CB9012070BDDB
:101140005A48006800F00700A8420ED257480068CD
:1011500020F007002843554908600846006800F061
:101160000700A84201D00120E9E7207800F0020042
:1011700002281DD1207800F00400042805D14C4835
:10118000406840F4E0604A494860207800F0080078
:10119000082805D14648406840F4605044494860FA
:1011A0004348406820F0F000A16808434049486087
:1011B000207800F0010078B36068012806D13C482F
:1011C000006800F4003090B90120B8E76068022898
:1011D00006D13748006800F0007040B90120AEE742
:1011E0003348006800F0020008B90120A7E7304842
:1011F000406820F00300616808432D494860FFF70C
:10120000D1FE064609E0FFF7CDFE801B41F2883192
:10121000884202D9032092E707E02548406800F0A1
:101220000C006168B0EB810FEDD12048006800F040
:101230000700A8420ED91D48006820F00700284387
:101240001A4908600846006800F00700A84201D06B
:10125000012074E7207800F00400042807D1144826
:10126000406820F4E060E168084311494860207854
:1012700000F00800082808D10D48406820F46050AC
:10128000216940EAC1000A49486000F03FF8084976
:101290004968C1F30311074A515CC8400649086018
:1012A00006480068FFF7A4FE002048E7002002403F
:1012B00000100240D4300008180000201000002068
:1012C00001480068704700001800002000B5FFF7D3
:1012D000F7FF04494968C1F30221034A515CC84041
:1012E00000BD000000100240E430000800B5FFF728
:1012F000E7FF04494968C1F3C221034A515CC84071
:1013000000BD000000100240E4300008F0B585B0D8
:101310000FF26C0C9CE8E01001A8A0E8E0101CA5FE
:101320002D68009500210022002300240020194D83
:10133000696801F00C05F5B1042D02D0082D19D112
:1013400001E0154819E001ADC1F38346AC5D01F43D
:10135000803555B10F4D6D68C5F340451DF805202A
:101360000D4D6543B5FBF2F302E00C4D04FB05F3B4
:10137000184602E000BF084800BF00BF05B0F0BD3E
:1013800002030405060708090A0B0C0D0E0F1010C6
:10139000010200000010024000127A0000093D0026
:1013A000F8B504460CB90120F8BD207800F0010022
:1013B000002878D0F848406800F00C0004280CD0D1
:1013C000F548406800F00C00082811D1F248406848
:1013D00000F48030B0F5803F0AD1EF48006800F497
:1013E000003000285FD0606800285CD10120DBE776
:1013F00000BF6068B0F5803F06D1E748006840F460
:101400008030E549086028E0606858B9E248006823
:1014100020F48030E04908600846006820F480200D
:1014200008601AE06068B0F5A02F0BD1DA480068B8
:1014300040F48020D84908600846006840F48030B5
:1014400008600AE0D448006820F48030D24908607F
:101450000846006820F48020086000BF606888B1FA
:10146000FFF7A0FD054606E0FFF79CFD401B642842
:1014700001D9032098E7C848006800F4003000282C
:10148000F2D010E0FFF78EFD054606E0FFF78AFD7B
:10149000401B642801D9032086E7BF48006800F498
:1014A00000300028F2D1207800F00200022857D145
:1014B000B948406800F00C0050B1B748406800F0EF
:1014C0000C00082818D1B448406800F4803098B95E
:1014D000B148006800F0020020B12069012801D065
:1014E000012061E7AC48006820F0F800616940EA3B
:1014F000C100A949086033E02069E8B10120A7498B
:101500000860FFF74FFD054606E0FFF74BFD401B67
:10151000022801D9032047E79F48006800F0020035
:101520000028F2D09C48006820F0F800616940EA89
:10153000C1009949086013E0002098490860FFF74E
:1015400031FD054606E0FFF72DFD401B022801D9BD
:10155000032029E79048006800F002000028F2D13B
:10156000207800F0080008282DD1A069B8B101202A
:101570008B490860FFF716FD054606E0FFF712FDF0
:10158000401B022801D903200EE78348406A00F07F
:1015900002000028F2D0012000F0D4FD13E000206A
:1015A0007F490860FFF7FEFC054606E0FFF7FAFCFE
:1015B000401B022801D90320F6E67748406A00F074
:1015C00002000028F2D1207800F00400042873D132
:1015D00000277148C06900F0805070B900BF6E48A4
:1015E000C06940F080506C49C8610846C06900F08D
:1015F0008050009000BF00BF01276A48006800F4D7
:101600008070B0B96748006840F480706549086030
:10161000FFF7C8FC054606E0FFF7C4FC401B642842
:1016200001D90320C0E65F48006800F480700028FC
:10163000F2D000BFE068012806D15748006A40F0A8
:1016400001005549086227E0E06858B95248006A2D
:1016500020F00100504908620846006A20F00400AA
:10166000086219E0E06805280BD14B48006A40F099
:101670000400494908620846006A40F00100086217
:101680000AE04548006A20F0010043490862084624
:10169000006A20F00400086200BFE068A0B1FFF714
:1016A00081FC054609E0FFF77DFC401B41F28831D3
:1016B000884202D9032077E622E03748006A00F02A
:1016C00002000028EFD012E0FFF76CFC054608E0AE
:1016D000FFF768FC401B41F28831884201D90320A2
:1016E00062E62D48006A00F002000028F0D1012FC8
:1016F00005D12948C06920F080502749C86100BF42
:10170000E069C8B32448406800F00C00082860D0A5
:10171000E069022848D1002020490866FFF742FC12
:10172000054606E0FFF73EFC401B022801D90320D6
:101730003AE61948006800F000700028F2D1206AEB
:10174000B0F5803F07D11448406820F40030A1680C
:10175000084311494860D4E9080108430E49496823
:1017600021F4741108430C49486001200B490866B4
:10177000FFF718FC054607E03DE0FFF713FC401BB0
:10178000022801D903200FE60348006800F000702A
:101790000028F2D02FE0000000100240000042427A
:1017A0008004424200700040002014490866FFF7A0
:1017B000F9FB054606E0FFF7F5FB401B022801D9BF
:1017C0000320F1E50E48006800F000700028F2D117
:1017D00011E0E069012800D1E6E50948466806F411
:1017E0008031206A814204D106F47011606A81421E
:1017F00001D00120D8E50020D6E5000000004242DB
:101800000010024010B504460CB9012010BD606AFA
:1018100038B96068B0F5827F00D105E00021E16150
:1018200002E00021216161610021A16294F8510070
:1018300028B9002084F85000204600F043F8022028
:1018400084F851002068006820F04000216808609A
:10185000A08800F48270218901F404410843A18921
:1018600001F400610843217C01F002010843217D5D
:1018700001F001010843218B01F400710843217F2D
:1018800001F0380108432021095D01F0800108437F
:10189000218D01F400510843216808600421A069EA
:1018A00001EA1040216848602068C06920F40060A7
:1018B0002168C86100206065012084F85100002083
:1018C000A4E7000010B586B0044600200290039003
:1018D000049005901B492068884230D100BF1A4807
:1018E000C06940F480401849C8610846C06900F4E6
:1018F0008040019000BF00BF00BF0846806940F0F3
:10190000080088610846806900F00800019000BF67
:1019100000BF4FF420400290022003900320059066
:1019200002A90A48FFF798F94FF48040029002207C
:1019300003900020049002A90448FFF78DF906B037
:1019400010BD00000038004000100240000C0140B3
:101950002DE9FF5F0446884691461D460E9E0120F4
:1019600002900020019000BF94F85000012803D19C
:10197000022004B0BDE8F09F012084F8500000BFB1
:10198000FFF710FB074694F851B060680390AA4631
:10199000BBF1010F0BD00398B0F5827F04D1A06892
:1019A00010B9BBF1040F02D002200190DBE0B8F1C6
:1019B000000F03D0B9F1000F00D015B9012001903C
:1019C000D1E094F85100042802D0052084F8510099
:1019D00000206065C4F83890E587A587C4F830809A
:1019E000E586A586206460642068006800F04000F9
:1019F000402805D02068006840F040002168086059
:101A0000E068B0F5006F4AD1606810B1BAF1010F1B
:101A100009D1206B00882168C860206B801C20637E
:101A2000E08E401EE08633E02068806800F002000F
:101A3000022810D1E08E70B1029801280BD1206BE2
:101A400000882168C860206B801C2063E08E401EE7
:101A5000E086002002902068806800F0010068B1F4
:101A6000E08F58B12068C068A16B0880A06B801C13
:101A7000A063E08F401EE08701200290FFF792FAFA
:101A8000C01BB04204D3701C10B1032001906AE067
:101A9000E08E0028C8D1E08F0028C5D14AE06068F8
:101AA00010B1BAF1010F09D1206B007821680873D9
:101AB000206B401C2063E08E401EE08634E02068EE
:101AC000806800F00200022810D1E08E70B1029808
:101AD00001280BD1206B007821680873206B401C13
:101AE0002063E08E401EE08600200290206880681F
:101AF00000F0010068B1E08F58B12068C068A16BA8
:101B00000870A06B401CA063E08F401EE08701209E
:101B10000290FFF747FAC01BB04201D3701C00B916
:101B200016B9032001901EE0E08E0028C7D1E08F97
:101B30000028C4D13A463146204600F017FB20B1B8
:101B400001200190202060650DE0A06850B900BF21
:101B5000002000902068C068009020688068009095
:101B600000BF00BF00BF012084F8510000BF00206B
:101B700084F8500000BF0198FBE670B50446254686
:101B8000681EB0F1807F01D301200FE0681E4FF086
:101B9000E02148610F214FF0FF3000F003FD0020ED
:101BA0004FF0E021886107200861002070BD00002F
:101BB00030B502460B4600BF92F83C00012801D127
:101BC000022030BD012082F83C0000BF022082F8D4
:101BD0003D00106844681068816824F0700418683B
:101BE000044310684460144D1068A84213D0134D8C
:101BF0001068A8420FD01068B0F1804F0BD0104D84
:101C00001068A84207D00F4D1068A84203D00E4DAF
:101C10001068A84205D121F080015868014310687E
:101C20008160012082F83D0000BF002082F83C0066
:101C300000BF00BFC5E70000002C01400034014098
:101C40000004004000080040000C004010B50446AD
:101C50000CB9012010BD94F83D0028B9002084F88B
:101C60003C00204600F026F8022084F83D00211DAB
:101C7000206800F03FFB012084F8460000BF84F894
:101C80003E0001213F2001554020015541200155D2
:101C900000BF00BF012084F84200432001554420CA
:101CA00001554520015500BF012084F83D0000206A
:101CB000D0E7000008B5094A016891420DD100BF84
:101CC0000749C96941F00801054AD1611146C9694E
:101CD00001F00801009100BF00BF08BD000C0040EA
:101CE000001002402DE9F04104460D4600BF94F873
:101CF0003C00012802D10220BDE8F081012084F8D7
:101D00003C0000BF022084F83D002068866826F071
:101D1000770626F47F46206886602868502833D0EE
:101D20000CDC202850D004DC00284BD0102851D1E6
:101D300049E0302849D040284CD139E060282DD0E6
:101D4000702807D0B0F5805F03D0B0F5005F41D1B7
:101D50000DE040E0D5E902136A68206800F018FB46
:101D60002068866846F077062068866033E0D5E90B
:101D700002136A68206800F00BFB2068806840F45A
:101D800080402168886026E0EA686968206800F081
:101D900013FB5021206800F006FB1CE0EA6869682C
:101DA000206800F01CFB6021206800F0FCFA12E0C3
:101DB000EA686968206800F0FFFA4021206800F0B6
:101DC000F2FA08E000BF00BF00BF2968206800F0F9
:101DD000EAFA00E000BF00BF012084F83D0000BF28
:101DE000002084F83C0000BF00BF85E710B5044622
:101DF0000CB9012010BDA06900B100E000BF94F84B
:101E00003D0028B9002084F83C00204600F028F866
:101E1000242084F83D002068C06820F40050216828
:101E2000C860204600F0F0FA2068006920F4904075
:101E3000216808612068406920F02A002168486113
:101E40002068C06840F400502168C8600020206409
:101E5000202084F83D0084F83E000020CAE70000FE
:101E600010B586B0044600200290039004900590BF
:101E70001A49206888422ED100BF1948806940F471
:101E80008040174988610846806900F480400190CD
:101E900000BF00BF00BF0846806940F004008861B1
:101EA0000846806900F00400019000BF00BF48159B
:101EB0000290022003900320059002A90948FEF732
:101EC000CBFE4FF48060029000200390049002A9A2
:101ED0000448FEF7C1FE06B010BD00000038014006
:101EE00000100240000801402DE9F84F04460E465C
:101EF000174699464FF0000A94F83D0020285AD121
:101F000006B117B90120BDE8F88F00BF94F83C0076
:101F1000012801D10220F6E7012084F83C0000BF2F
:101F200000202064212084F83D00FFF73BF8824622
:101F3000A784E784A068B0F5805F04D1206910B958
:101F40000025B04602E035464FF0000800BF0020F3
:101F500084F83C0000BF1BE053460022802120464D
:101F6000CDF8009000F0CEFA08B10320CBE745B9D8
:101F7000B8F80000C0F308002168486008F10208C2
:101F800003E02878216848606D1CE08C401EE084E6
:101F9000E08C0028E0D15346002240212046CDF8B5
:101FA000009000F0AFFA08B10320ACE7202084F8DD
:101FB0003D000020A7E70220A5E700BFFEE70000E4
:101FC00000B585B00020019002900390049000BFFE
:101FD0001C48806940F008001A49886108468069F9
:101FE00000F00800009000BF00BF00BF08468069F5
:101FF00040F0200088610846806900F020000090D1
:1020000000BF00BF00BF0846806940F0040088613F
:102010000846806900F00400009000BF00BF012264
:10202000C9140948FEF7B8FF4FF400600190012081
:10203000029003900320049001A90348FEF70CFED0
:1020400005B000BD001002400014014010B50F485B
:102050000F4908604FF48270486000210C4881608D
:10206000C160022101610121416149028161382180
:10207000C16100210162416281620A21C162FFF7F0
:10208000C1FB08B1FEF7D1FD10BD000000380040D3
:102090002000002000B587B0002003900490059038
:1020A0000690019002901448144908604720486047
:1020B0000021124881604FF6FF71C160002101616B
:1020C0008161FFF7C3FD08B1FEF7AFFD4FF480500B
:1020D000039003A90948FFF705FE08B1FEF7A5FD27
:1020E00000200190029001A90448FFF761FD08B1AA
:1020F000FEF79BFD07B000BD000C004078000020FB
:1021000010B50B480B4908604FF4E13048600021DE
:1021100008488160C16001610C2141610021816139
:10212000C161FFF763FE08B1FEF77FFD10BD00003F
:1021300000380140C000002000BFFEE700BFFEE7FE
:102140007047000008B508490968C9084FF47A7259
:10215000B1FBF2F14143009100BF00BF00994A1E5C
:1021600000920029F9D108BD18000020F8B50446F6
:102170000D4616462B46002280212046009600F090
:1021800019F828B1606D40F0200060650320F8BDAB
:102190000020FCE701B582B04FF47A70012301AA58
:1021A00002A900900248FFF7D3FB9DF804000EBD82
:1021B000200000202DE9F84F04460D4690461E46AB
:1021C000DDF82890FEF7EEFEA0EB0900371AFEF7C7
:1021D000E9FE82462C480068C0F3CB30784300907B
:1021E00045E0701C002842D0FEF7DCFEA0EB0A00A0
:1021F000B84200D2A7BB2068406820F0E000216808
:1022000048606068B0F5827F0DD1A068B0F5004FDE
:1022100003D0A068B0F5806F05D12068006820F079
:10222000400021680860A06AB0F5005F0DD100BFD2
:102230002068006820F40050216808602068006869
:1022400040F400502168086000BF012084F851006C
:1022500000BF002084F8500000BF0320BDE8F88FC5
:10226000FFE7009800B900270098401E0090206802
:1022700080682840A84201D1012000E000204045AC
:10228000AFD10020EAE7000018000020704710B529
:10229000FEF78EFE10BD00B58FB0282105A8FDF712
:1022A000ADFF14216846FDF7A9FF0220059001202B
:1022B000099010200A9002200C9000210D914FF4FB
:1022C000C0110E9105A8FFF76BF808B1FEF7ADFC41
:1022D0000F200090022001900020029003900490B3
:1022E00001216846FEF726FF08B1FEF79EFC0FB0FD
:1022F00000BD704710B50268204B98420ED0204BAD
:1023000098420BD0B0F1804F08D01E4B984205D0B8
:102310001D4B984202D01D4B984203D122F070020F
:102320004B681A43154B98420ED0154B98420BD070
:10233000B0F1804F08D0134B984205D0124B984211
:1023400002D0124B984203D122F44072CB681A4358
:1023500022F080034C6943EA040202608B68C36286
:102360000B688362054B984202D0054B984201D11D
:102370000B6903630123436110BD0000002C014081
:10238000003401400004004000080040000C004000
:1023900030B50C46816821F47F4142EA032525438C
:1023A0002943816030BD0A46816821F0700142F006
:1023B000070319438160704730B50B461446026A23
:1023C000056A25F001050562816921F0F00141EA05
:1023D000041122F00A021A438161026230BD30B555
:1023E0000B461446056A25F0100505628169026AEC
:1023F00021F4704141EA043122F0A00242EA0312C2
:102400008161026230BD000070B50446216809692F
:1024100021F44051E2681143226811612269A168E8
:102420001143626941EA02052168C96841F20C6200
:10243000914329432268D1602168496921F44071A0
:10244000A2691143226851612D4A2168914202D14B
:10245000FEF74CFF01E0FEF739FF00EBC00101EB96
:10246000001162689200B1FBF2F100EBC00202EBD6
:10247000001263689B00B2FBF3F26423B2FBF3F239
:1024800002EBC20303EB0212A1EB8201322202EB48
:1024900001116422B1FBF2F101F0F00100EBC00286
:1024A00002EB001263689B00B2FBF3F26423B2FB01
:1024B000F3F201EB021200EBC00101EB00116368C3
:1024C0009B00B1FBF3F100EBC00303EB0013666864
:1024D000B600B3FBF6F36426B3FBF6F303EBC306D7
:1024E00006EB0313A1EB8301322303EB01116423F9
:1024F000B1FBF3F101F00F0111442268916070BD4E
:10250000003801402DE9F04104460D461746984633
:10251000069E21E0701CF8B12EB1FEF743FDA0EB42
:102520000800B04218D92068C06820F4D070216833
:10253000C8602068406920F00100216848612020BF
:1025400084F83D0084F83E0000BF002084F83C0081
:1025500000BF0320BDE8F081206800682840A84241
:1025600001D1012000E00020B842D3D00020F1E7E3
:1025700000BFFEE70FB4054B10B503A9044A02984B
:1025800000F0F6F810BC5DF814FB0000292F0008DD
:102590001C00002002480068C0F3022070470000C1
:1025A0000CED00E010B5002804DB0A07130E054A05
:1025B000135406E00A07140E034A00F00F031B1F12
:1025C000D45410BD00E400E018ED00E002E008C8BB
:1025D000121F08C1002AFAD170477047002001E09D
:1025E00001C1121F002AFBD1704700002DE9FF5FD7
:1025F00082B00021DDE90430020DDDF840B0034374
:1026000018D044F61050A2F2FF324243151411982C
:1026100001281FD0A5EB0B00401C5FEA000A4FF019
:1026200000064E4FDFF83891B046504615D5CAF136
:10263000000413E0119801244AA3012801D16FEA94
:102640000B010298119AC0E90031C0E9024206B0BC
:10265000BDE8F09FCBF10000DFE704460021404ACF
:10266000491842EB0450CDE9001012E0E00707D012
:1026700032463B4640464946FDF793FE8046894632
:1026800032463B4610461946FDF78BFE06460F467E
:102690006410002CEAD1DDE90401DDE90023BAF180
:1026A000000F06DAFDF77DFE42464B46FDF779FE48
:1026B00005E0FEF79DF842464B46FEF799F80446C2
:1026C0000E460022284BFEF71BF903D84FF0FF30CF
:1026D000014607E00022254B20463146FDF7E1FF89
:1026E000FEF7F5F8102409E0002C0ADB0A2200238B
:1026F000FDF73CFD039B30321A55641E50EA01027F
:10270000F2D1641C039AC4F111031444119A012AF2
:1027100003D0012208430DD10AE0084304D0002071
:102720004FF0110B119072E7A3EB0B056D1E0DE03E
:102730005B4504DD4FF0000205F1010504E003DA1A
:102740004FF00002A5F10105002AECD00298119982
:10275000C0E90231C0E9004579E7000000001440FB
:102760000000F03F300000000000F0430000E03FB8
:102770002DE9FF4F95B09A46884606460025EEE1C2
:10278000252877D100242746F94A0121039400E047
:10279000044316F8013F203B01FA03F01042F7D141
:1027A00030782A2811D06FF02F033078A0F1300252
:1027B000092A16D8039A44F0020402EB820203EBC2
:1027C00042021044761C0390EFE758F8042B039262
:1027D000002A03DA504244F40054039044F0020407
:1027E000761C30782E2816D116F8010F44F0040418
:1027F0002A280DD06FF02F023078A0F13003092B7A
:1028000009D807EB870302EB4303C718761CF3E7ED
:1028100058F8047B761C30786C280FD006DC4C28E6
:1028200017D068280DD06A2814D104E0742810D07D
:102830007A280FD10DE044F400140AE044F4801427
:1028400001E044F440147278824202D104F580140D
:10285000761C761C307866280BD013DC582877D08D
:1028600009DC002875D04528F6D04628F4D0472842
:102870001AD193E118E0632835D0642879D065280F
:1028800012D18BE1702873D008DC6728F1D0692859
:102890006FD06E280DD06F2806D1ACE073282CD0F5
:1028A000752874D0782853D05246179990476D1CDC
:1028B00054E1C4F30250022809D003280DD0D8F8FF
:1028C000001004280DD00D6008F1040846E1D8F886
:1028D0000010EA17C1E90052F6E7D8F800100D80A1
:1028E000F2E70D70F0E718F8041B8DF800100020D7
:1028F0008DF80100EB46012003E058F804BB4FF0CF
:10290000FF3061074FF0000102D40DE009F1010131
:102910008946B9420FDA8145F8DB1BF80910002916
:10292000F4D108E009F1010189468142FADB1BF884
:1029300009100029F6D103985346A0EB0907214658
:102940003846179A00F080FA284400EB090507E0A2
:1029500044E008E10DE01BF8010B5246179990473F
:10296000B9F10109F7D2534621463846179AF2E0E9
:1029700039E00A21C4F302524FF0000B0091022A01
:1029800006D058F8040BC117032A09D00AE023E047
:1029900008F1070020F00702F2E80201904605E086
:1029A00000B2C117042A01D140B2C117002906DACA
:1029B0000A460021404261EB02012D2202E022057D
:1029C00004D52B228DF80420012203E0E20701D078
:1029D0002022F7E7914657E00A2100E010214FF04E
:1029E000000B00910BE010214FF0000B44F00404A9
:1029F0000827009103E008204FF0000B0090C4F37B
:102A00000252022A05D058F8040B0021032A08D0EC
:102A100008E008F1070020F00702F2E80201904602
:102A200003E080B2042A00D1C0B24FF000092207AF
:102A30002AD53278702A07D0DDF800C08CF0100C4F
:102A40005CEA0B0C05D00EE040228DF80420012238
:102A500008E050EA010306D030238DF804308DF8E9
:102A6000052002229146009B83F0080353EA0B03E2
:102A70000AD150EA010201D1620705D530228DF852
:102A800004204FF001097F1E3278582A04D039A261
:102A90000C920CAA02920BE03BA2F9E75B46009A6B
:102AA000FDF764FB0C9B9B5C029A521E0292137012
:102AB00050EA0102F2D1029804A9081A00F1200B91
:102AC000600702D524F4803400E001275F4502DD71
:102AD000A7EB0B0000E0002000EB0B010090039837
:102AE0004944401A0390E00306D453462146179AFE
:102AF000039800F0A9F90544002706E001A8524612
:102B0000C05D179990476D1C7F1C4F45F6DBE003B5
:102B10000CD553462146179A039800F095F90544C1
:102B200004E030205246179990476D1C0099481ECA
:102B300000900029F5DC08E00298029952460078DE
:102B4000491C0291179990476D1CBBF10001ABF134
:102B5000010BF1DC5BE100F065F90544761C30788F
:102B600000287FF40DAE19B02846BDE8F08F0000B4
:102B70000928010030313233343536373839616253
:102B80006364656600000000303132333435363717
:102B9000383941424344454600000000600700D4F4
:102BA000062708F1070020F00700F0E8022380461E
:102BB00003F0004C5FEA0C0001D097A009E020056B
:102BC00001D596A005E0E00701D095A001E0AFF2A5
:102BD0004C001390307823F0004365280CD006DCBD
:102BE000452809D046281DD047287FD13BE06628DC
:102BF00018D067287AD136E00021112F01DB11208F
:102C000000E0781CCDE9000104A90CA8FFF7EEFC58
:102C1000DDE90D010C9A4FF0000B07F1010910924C
:102C200000914EE04FF000400097CDE9011004A95B
:102C30000CA8FFF7DBFCDDE90D020C9B0F994FF0B0
:102C4000000B91461093009211B9791C00EB010919
:102C5000B7EB090003D4C0F1FF3B07F10109A9EB71
:102C60000700019042E0012F00DA01270021112F17
:102C700001DD112000E03846CDE9000104A90CA8CF
:102C8000FFF7B4FCDDE90D010C9A00914FF0000B49
:102C9000B946109221070FD4009A4A4503DA9146AB
:102CA00001E0A9F10109B9F1010F05DD109AA9F1BF
:102CB0000101515C3029F4D0B84202DA10F1040F5E
:102CC00003DA0121CDE9011010E0002803DC834480
:102CD000A9EB000102E0411C494500DD8946A0EB5B
:102CE0000B00401C01904FF000400290200705D4DB
:102CF0000198484502DB4FF0FF30019000208DF82D
:102D00004B0002980DF14B07B0F1004F25D0022087
:102D10000C902B200D90029800280CDA4042029073
:102D20002D200D9007E00A210298FDF701FC3031BB
:102D3000029007F8011D0C99481E0C900029F2DC46
:102D400002980028EFD1791E0D980870307800F0B5
:102D5000200040F0450007F8020D11A8C01BC01D5F
:102D600002901398007800B1012000EB090101984E
:102D700001EBE071029801440398401A401E039051
:102D8000E00306D453462146179A039800F05CF8F6
:102D900005441398007818B15246179990476D1C56
:102DA000E00323D553462146179A039800F04CF8C8
:102DB00005441BE0BBF1000F07DB0098584504DD1C
:102DC0001098179910F80B0001E01799302052461F
:102DD000904701980BF1010B401E05F10105019090
:102DE00004D12E205246179990476D1CB9F100016D
:102DF000A9F10109DEDC05E017F8010B524617992D
:102E000090476D1C0299481E02900029F4DC53463D
:102E10002146179A03989EE62D0000002B00000023
:102E2000200000002DE9F041044600251E4617460B
:102E3000880404D405E039462020B0476D1C641E88
:102E4000F9D52846BDE8F0812DE9F041044600257A
:102E50001E469046C80301D5302700E0202788048D
:102E600004D505E041463846B0476D1C641EF9D5CF
:102E70002846BDE8F0812DE9F04705460E4691460B
:102E80001F464FF00008A6F1010A0120C0EB5604CE
:102E900016E055F824104846FDF736FB01D2A2464D
:102EA0000BE055F824104846FDF738FB01D2A04648
:102EB00003E03C600020BDE8F08708EB0A0044080E
:102EC000AAEB08000128E4D8C7F800800120F2E747
:102ED0000021144A1268516212490968096841F0D8
:102EE0000101104A1268116000BF0E490968496A61
:102EF0008142FAD300BF0B490968096A41F21112F5
:102F0000114069B907490968096A9210114039B935
:102F100004490968096821F00101024A1268116038
:102F200000BF70477800002013B50C464FF0FF3308
:102F3000012269460248FEF7D7FF00981CBD000039
:102F4000C0000020FEF740F8FFF7A5F9FFF738F8BA
:102F5000FFF7D6F8FFF79EF8FFF778F8FDF70CFEBD
:102F60002FE0FDF709FD1749086008460068FDF7E6
:102F70008FFA0646144A154BFDF713FA0446FDF77F
:102F8000A7FA1349086008460068FDF78EFA044660
:102F900022460B460FA0FFF7EDFA0D48006800F03F
:102FA0002BF81049086008460068FDF77EFA0446D1
:102FB00022460B460CA0FFF7DDFA42F21070FDF737
:102FC00037FECEE700000020FCA9F1D24D62503F51
:102FD000040000205245533D252E336620200D0A63
:102FE000000000000800002074656D703D252E3142
:102FF0006620430D0A0000002DE9F04F87B004461B
:103000000027002006908046002500268146059076
:1030100006AB2246C8212C48FFF72DFF47B267B9FF
:103020000698FDF730FA83462849FDF74AF98246AB
:103030002749FDF7EEF8804641E02348069950F80D
:1030400021500698FDF71FFA81461F490698401C3B
:1030500051F820600698401CFDF715FA05902946A6
:103060003046FDF728F9294601902046FDF723F95F
:1030700000900599FDF725F983460199FDF753F96D
:10308000314603902846FDF716F931460190204657
:10309000FDF711F949460090FDF713F983460199B0
:1030A000FDF741F902900399FDF7B3F8824607490D
:1030B000FDF707F906490490FDF7ABF88046404656
:1030C00007B0BDE8F08F0000EC300008CDCCCC3D5F
:1030D0000000A04100000000000000000102030405
:1030E000060708090000000001020304ECBD864445
:1030F0005ECA8644C9D686443BE38644A6EF86442E
:1031000010FC864483088744EE148744602187447A
:10311000CB2D87443D3A8744A846874412538744C1
:10312000855F8744F06B874462788744CD84874409
:1031300037918744A29D874414AA87447FB6874469
:10314000E9C287445CCF8744C7DB874431E88744C2
:103150009CF487440E018844790D8844E31988441F
:103160004E268844B83288442B3F8844964B884486
:10317000005888446A648844D57088443F7D8844F8
:10318000AA898844149688447FA28844F2AE884471
:103190005CBB8844C7C7884431D488449CE08844D9
:1031A00006ED884471F98844DB0589444612894458
:1031B000B01E89441B2B89447D378944E7438944E9
:1031C00052508944BC5C894427698944917589447B
:1031D000FC818944668E8944D19A894433A7894405
:1031E0009EB3894408C0894473CC8944DDD889449E
:1031F0003FE58944AAF1894414FE89447F0A8A4440
:10320000E1168A444C238A44B62F8A44213C8A44DE
:1032100083488A44EE548A4458618A44BA6D8A4489
:10322000257A8A4487868A44F2928A445C9F8A443B
:10323000BEAB8A4429B88A448BC48A44F6D08A44F7
:1032400058DD8A44A187294B2DF68A448F028B448E
:10325000FA0E8B445C1B8B44BE278B4429348B4471
:103260008B408B44F64C8B4458598B44C3658B443C
:1032700025728B44877E8B44F28A8B4454978B440F
:10328000BEA38B4421B08B4483BC8B44EEC88B44DB
:1032900050D58B44B2E18B441DEE8B447FFA8B44B6
:1032A000E1068C4444138C44AE1F8C44102C8C4497
:1032B00073388C44D5448C4437518C44A25D8C4483
:1032C000046A8C4466768C44C9828C442B8F8C446F
:1032D0008D9B8C44F0A78C445AB48C44BCC08C4465
:1032E0001FCD8C4481D98C44E3E58C4446F28C4458
:1032F000A8FE8C440A0B8D446D178D44CF238D445A
:1033000010448D44933C8D44F6488D4458558D446B
:10331000BA618D441D6E8D447F7A8D44E1868D4463
:1033200044938D449E9F8D4400AC8D4462B88D447F
:10333000C5C48D4427D18D4489DD8D44E3E98D4496
:1033400046F68D44A8028E440A0F8E446D1B8E44AF
:10335000C7278E4429348E448B408E44EE4C8E44D5
:1033600048598E44AA658E440C728E44667E8E4403
:10337000C98A8E442B978E4485A38E44E7AF8E4432
:103380004ABC8E44A4C88E4406D58E4460E18E4467
:10339000C3ED8E4425FA8E447F068F44E1128F449C
:1033A0003B1F8F449E2B8F44F8378F445A448F44E1
:1033B000B4508F44175D8F4471698F44CB758F442F
:1033C0002D828F44878E8F44E99A8F4444A78F447F
:1033D000A6B38F4400C08F445ACC8F44BCD88F44CE
:1033E00017E58F4471F18F44D3FD8F442D0A90442B
:1033F00087169044E9229044442F90449E3B904489
:10340000F84790445A549044B46090442C340008D7
:103410000000002020000000CC2500084C340008EB
:1034200020000020E8040000DC2500080000000067
:10343000000000000000000000000000100000007C
:0C344000010000000024F4000000000067
:0400000508000131BD
:00000001FF
